:100000000C942A000C9447000C9447000C94470071
:100010000C9447000C9447000C9447000C94470044
:100020000C9447000C9447000C94461A0C9447001B
:100030000C9447000C9447000C9447000C94470024
:100040000C9447000C9447000C9447000C94470014
:100050000C94470011241FBECFE5D8E0DEBFCDBF12
:1000600010E0A0E6B0E0E8E5FEE302C005900D92E6
:10007000A23FB107D9F711E0A2EFB0E001C01D9295
:10008000A836B107E1F70E947B1C0C942A1F0C9440
:100090000000EF92FF920F931F937B018C0120E0F1
:1000A00030E040E05FE40E94F50388238CF0C80153
:1000B000B70120E030E040E05FE40E94C1010E940F
:1000C00055049B01AC01205030404040504806C0D0
:1000D000C801B7010E9455049B01AC01B901CA01D6
:1000E0001F910F91FF90EF900895A0E0B0E0EBE733
:1000F000F0E00C94AE1EDC012B01FA019C919230D1
:1001000008F439C1EB018881823008F433C194309E
:1001100069F4843009F02FC111969C91119789815F
:10012000981709F428C1A2EEB0E025C1843009F483
:1001300021C18230A9F4923009F01DC19A01AD01AC
:1001400088E0EA010990AE01E90109929E0181501F
:10015000C1F7E201898111969C918923818308C1AD
:10016000923009F407C112962D903C901397EB0141
:100170008A819B811496AD90BD90CD90DC901797AD
:10018000EC80FD800E811F819101281B390BB90184
:1001900037FF04C066277727621B730B6032710537
:1001A0000CF061C0121613066CF537014801062EDB
:1001B00004C096948794779467940A94D2F721E0C8
:1001C00030E040E050E004C0220F331F441F551FB1
:1001D0006A95D2F721503040404050402E213F21B7
:1001E00040235123211531054105510521F021E01E
:1001F00030E040E050E079018A01E628F72808293C
:1002000019293CC0232BD1F1260E371E350146019A
:10021000062E04C096948794779467940A94D2F734
:1002200021E030E040E050E004C0220F331F441FC3
:10023000551F6A95D2F721503040404050402A2146
:100240003B214C215D21211531054105510521F04E
:1002500021E030E040E050E059016A01A628B728CB
:10026000C828D9280BC0821593052CF01C01AA249C
:10027000BB24650103C0EE24FF24870111969C91E5
:10028000D20111968C91981709F445C0992339F041
:10029000A80197012A193B094C095D0906C0A6016E
:1002A00095012E193F09400B510B57FD08C01182D3
:1002B0003382228224833583468357831DC081E0A5
:1002C00081833382228288279927DC01821B930B4A
:1002D000A40BB50B84839583A683B7830DC0220F2F
:1002E000331F441F551F24833583468357838281E0
:1002F000938101979383828324813581468157813D
:10030000DA01C9010197A109B1098F5F9F4FAF4F72
:10031000BF4328F30BC0918333822282EA0CFB1C7B
:100320000C1D1D1DE482F5820683178383E0808304
:10033000248135814681578157FF1AC0C901AA27F8
:1003400097FDA095BA2F81709070A070B0705695EF
:10035000479537952795822B932BA42BB52B848318
:100360009583A683B7838281938101969383828349
:10037000DF0101C0D201CD01CDB7DEB7E2E10C94BF
:10038000CA1EA0E2B0E0E7ECF1E00C94BA1E69836B
:100390007A838B839C832D833E834F835887E9E048
:1003A000EE2EF12CEC0EFD1ECE010196B7010E943F
:1003B0007E058E010F5E1F4FCE010596B8010E948B
:1003C0007E058A8991E089278A8BC701B801AE0131
:1003D000475E5F4F0E9475000E94A904A096E6E068
:1003E0000C94D61EA0E2B0E0E8EFF1E00C94BA1E47
:1003F00069837A838B839C832D833E834F835887C5
:10040000F9E0EF2EF12CEC0EFD1ECE010196B701A6
:100410000E947E058E010F5E1F4FCE010596B8012A
:100420000E947E05C701B801AE01475E5F4F0E9482
:1004300075000E94A904A096E6E00C94D61EA0E2E6
:10044000B0E0E5E2F2E00C94AE1E69837A838B8320
:100450009C832D833E834F835887CE010196BE0136
:10046000675F7F4F0E947E05CE010596BE016F5EDD
:100470007F4F0E947E059985923088F0898982306D
:10048000C8F0943019F4823051F404C0843029F457
:10049000923081F482EE90E0C6C0923049F420E0C0
:1004A0009A858A89981321E02A87CE010996BBC0D4
:1004B000823049F420E09A858A89981321E02A8BBA
:1004C000CE014196B0C02D843E844F8458886D88FB
:1004D0007E888F88988CEE24FF248701AA24BB2471
:1004E000650140E050E060E070E0E0E0F0E0C10174
:1004F00081709070892BE9F0E60CF71C081D191D1E
:100500009A01AB012A0D3B1D4C1D5D1D80E090E062
:10051000A0E0B0E0E614F7040805190520F481E036
:1005200090E0A0E0B0E0BA01A901480F591F6A1F8E
:100530007B1FAA0CBB1CCC1CDD1C97FE08C081E0F5
:1005400090E0A0E0B0E0A82AB92ACA2ADB2A3196B6
:10055000E032F10549F0660C771C881C991C569412
:10056000479437942794C3CFFA85EA892B893C892D
:100570008B859C85280F391F2E5F3F4F17C0CA01FE
:1005800081709070892B61F016950795F794E79428
:1005900080E090E0A0E0B0E8E82AF92A0A2B1B2BC3
:1005A00076956795579547952F5F3F4F77FDE7CF36
:1005B0000CC0440F551F661F771F17FD4160EE0CDE
:1005C000FF1C001F111F21503040403090E05907A0
:1005D00090E0690790E4790760F32B8F3C8FDB0193
:1005E000CA018F779070A070B07080349105A1051A
:1005F000B10561F447FD0AC0E114F10401051105DC
:1006000029F0405C5F4F6F4F7F4F40781A8EFE1786
:1006100011F081E08A8F4D8F5E8F6F8F78A383E01A
:10062000898FCE0149960E94A904A096E2E10C941C
:10063000CA1EA8E1B0E0EFE1F3E00C94B61E6983B6
:100640007A838B839C832D833E834F835887B9E0C5
:10065000EB2EF12CEC0EFD1ECE010196B7010E948F
:100660007E058E010F5E1F4FCE010596B8010E94D8
:100670007E052985223008F47EC03989323010F495
:10068000B8017CC08A859A8989278A87243011F02D
:10069000223031F4231709F06EC062EE70E06EC0B4
:1006A000343039F41D861E861F86188A1C861B86E8
:1006B00004C0323021F484E08987B7015FC02B8504
:1006C0003C858B899C89281B390B3C872B87ED84C3
:1006D000FE840F851889AD88BE88CF88D88CEA142F
:1006E000FB040C051D0540F4EE0CFF1C001F111F40
:1006F000215030403C872B8720E030E040E050E044
:1007000080E090E0A0E0B0E460E070E0EA14FB0478
:100710000C051D0540F0282B392B4A2B5B2BEA18C2
:10072000FB080C091D09B695A79597958795EE0CC2
:10073000FF1C001F111F6F5F7F4F6F31710531F775
:10074000DA01C9018F779070A070B0708034910584
:10075000A105B10561F427FD0AC0E114F10401050A
:10076000110529F0205C3F4F4F4F5F4F20782D87B8
:100770003E874F87588BBE01675F7F4FCB010E943A
:10078000A9046896EAE00C94D21EA8E1B0E0EBEC74
:10079000F3E00C94BA1E69837A838B839C832D8348
:1007A0003E834F83588789E0E82EF12CEC0EFD1E26
:1007B000CE010196B7010E947E058E010F5E1F4F8C
:1007C000CE010596B8010E947E058985823040F0F1
:1007D0008989823028F0C701B8010E94F60501C05E
:1007E0008FEF6896E6E00C94D61EA8E1B0E0EBEF40
:1007F000F3E00C94BA1E69837A838B839C832D83E8
:100800003E834F83588789E0E82EF12CEC0EFD1EC5
:10081000CE010196B7010E947E058E010F5E1F4F2B
:10082000CE010596B8010E947E058985823040F090
:100830008989823028F0C701B8010E94F60501C0FD
:100840008FEF6896E6E00C94D61EA8E1B0E0EBE2EC
:10085000F4E00C94BA1E69837A838B839C832D8386
:100860003E834F83588789E0E82EF12CEC0EFD1E65
:10087000CE010196B7010E947E058E010F5E1F4FCB
:10088000CE010596B8010E947E058985823040F030
:100890008989823028F0C701B8010E94F60501C09D
:1008A00081E06896E6E00C94D61EACE0B0E0EBE5A3
:1008B000F4E00C94BE1E69837A838B839C83CE0103
:1008C0000196BE016B5F7F4F0E947E058D81823055
:1008D00061F1823050F1843021F48E81882351F10E
:1008E0002EC02F81388537FD20C06E812F31310514
:1008F0001CF06623F9F023C08EE190E0821B930B7D
:1009000029853A854B855C8504C056954795379572
:1009100027958A95D2F76623B1F05095409530958A
:1009200021953F4F4F4F5F4F0EC020E030E040E039
:1009300050E009C02FEF3FEF4FEF5FE704C020E02A
:1009400030E040E050E8B901CA012C96E2E00C9496
:10095000DA1EDF92EF92FF920F931F93FC01E48067
:10096000F58006811781D1808081823048F480E053
:1009700090E0A0E1B0E0E82AF92A0A2B1B2BA5C0E1
:10098000843009F49FC0823021F4EE24FF248701D3
:1009900005C0E114F1040105110519F4E0E0F0E0EF
:1009A00096C0628173819FEF623879070CF05BC05B
:1009B00022E83FEF261B370B2A3131052CF020E0CF
:1009C00030E040E050E02AC0B801A701022E04C088
:1009D00076956795579547950A94D2F781E090E010
:1009E000A0E0B0E004C0880F991FAA1FBB1F2A9582
:1009F000D2F70197A109B1098E219F21A023B1232C
:100A00000097A105B10521F081E090E0A0E0B0E001
:100A10009A01AB01282B392B4A2B5B2BDA01C90138
:100A20008F779070A070B07080349105A105B105EA
:100A300039F427FF09C0205C3F4F4F4F5F4F04C080
:100A4000215C3F4F4F4F5F4FE0E0F0E02030A0E0EF
:100A50003A07A0E04A07A0E45A0710F0E1E0F0E00E
:100A600079018A0127C06038710564F5FB01E158FE
:100A7000FF4FD801C7018F779070A070B07080349D
:100A80009105A105B10539F4E7FE0DC080E490E0C1
:100A9000A0E0B0E004C08FE390E0A0E0B0E0E80E9A
:100AA000F91E0A1F1B1F17FF05C016950795F7941F
:100AB000E794319687E016950795F794E7948A9521
:100AC000D1F705C0EE24FF248701EFEFF0E06E2F91
:100AD000679566276795902F9F77D794DD24D794E5
:100AE0008E2F8695492F462B582F5D29B701CA01B5
:100AF0001F910F91FF90EF90DF900895FC01DB01B3
:100B0000408151812281622F6F7770E0221F22275E
:100B1000221F9381892F880F822B282F30E0991F65
:100B20009927991F11969C93119721153105A9F5C5
:100B3000411551056105710511F482E037C082E865
:100B40009FEF13969C938E9312979A01AB0167E0E7
:100B5000220F331F441F551F6A95D1F783E08C93F2
:100B60000DC0220F331F441F551F12968D919C916B
:100B70001397019713969C938E931297203080E0E1
:100B8000380780E0480780E4580758F314962D93FF
:100B90003D934D935C93179708952F3F310579F45A
:100BA000411551056105710519F484E08C93089590
:100BB00064FF03C081E08C9312C01C9210C02F57B9
:100BC000304013963C932E93129783E08C9387E0EA
:100BD000440F551F661F771F8A95D1F770641496CE
:100BE0004D935D936D937C93179708951F93DC014C
:100BF000FB019C91923008F447C08081823008F458
:100C000043C0943051F411961C91843099F5818140
:100C1000682F70E0611B71093FC0843021F0923071
:100C200031F48230B9F18181882389F12DC0119688
:100C30001C9111978230F1F081811817D9F4129626
:100C40002D913C911397828193818217930794F0A1
:100C500028173907BCF014968D919D910D90BC9189
:100C6000A02D2481358146815781281739074A07ED
:100C70005B0718F4112341F00AC082179307A407F9
:100C8000B50740F4112319F061E070E005C06FEF83
:100C90007FEF02C060E070E0CB011F910895DF9309
:100CA000CF9300D0CDB7DEB789836A838A81813044
:100CB00009F070C089818830A0F4ABE3B0E0EBE3C9
:100CC000F0E08081482F8981282F30E081E090E09A
:100CD000022E02C0880F991F0A94E2F7842B8C938E
:100CE000CEC089818830D0F089818031B8F4A8E302
:100CF000B0E0E8E3F0E08081482F8981882F90E020
:100D00009C012850304081E090E0022E02C0880F04
:100D1000991F0A94E2F7842B8C93B1C089818031AA
:100D2000D0F089818831B8F4A5E3B0E0E5E3F0E0E4
:100D30008081482F8981882F90E09C01205130408C
:100D400081E090E0022E02C0880F991F0A94E2F71A
:100D5000842B8C9394C08981883108F490C0898158
:100D6000803208F08CC0A2E3B0E0E2E3F0E08081E2
:100D7000482F8981882F90E09C012851304081E0E4
:100D800090E0022E02C0880F991F0A94E2F7842B8C
:100D90008C9375C08A81882309F071C0898188305D
:100DA000A8F4ABE3B0E0EBE3F0E08081482F898169
:100DB000282F30E081E090E0022E02C0880F991FBA
:100DC0000A94E2F7809584238C9359C089818830F6
:100DD000D8F089818031C0F4A8E3B0E0E8E3F0E026
:100DE0008081482F8981882F90E09C0128503040D5
:100DF00081E090E0022E02C0880F991F0A94E2F76A
:100E0000809584238C933BC089818031D8F089817F
:100E10008831C0F4A5E3B0E0E5E3F0E08081482F3D
:100E20008981882F90E09C012051304081E090E042
:100E3000022E02C0880F991F0A94E2F7809584233E
:100E40008C931DC089818831D0F089818032B8F4BB
:100E5000A2E3B0E0E2E3F0E08081482F8981882FAF
:100E600090E09C012851304081E090E0022E02C0C9
:100E7000880F991F0A94E2F7809584238C930F9032
:100E80000F90CF91DF910895DF93CF9300D0CDB72E
:100E9000DEB78A838A81883090F4E9E3F0E08081CC
:100EA000482F8A81282F30E081E090E0022E02C096
:100EB000880F991F0A94E2F78423898350C08A819E
:100EC0008830C0F08A818031A8F4E6E3F0E08081C8
:100ED000482F8A81882F90E09C012850304081E083
:100EE00090E0022E02C0880F991F0A94E2F7842333
:100EF000898335C08A818031C0F08A818831A8F425
:100F0000E3E3F0E08081482F8A81882F90E09C0104
:100F10002051304081E090E0022E02C0880F991FDE
:100F20000A94E2F7842389831AC08A818831B8F051
:100F30008A818032A0F4E0E3F0E08081482F8A814A
:100F4000882F90E09C012851304081E090E0022EF3
:100F500002C0880F991F0A94E2F78423898389814C
:100F60000F900F90CF91DF910895DF93CF9300D032
:100F7000CDB7DEB789836A838A81813009F070C07A
:100F800089818830A0F4AAE3B0E0EAE3F0E0808150
:100F9000482F8981282F30E081E090E0022E02C0A6
:100FA000880F991F0A94E2F7842B8C93CEC0898115
:100FB0008830D0F089818031B8F4A7E3B0E0E7E36E
:100FC000F0E08081482F8981882F90E09C01285093
:100FD000304081E090E0022E02C0880F991F0A94F1
:100FE000E2F7842B8C93B1C089818031D0F0898164
:100FF0008831B8F4A4E3B0E0E4E3F0E08081482F66
:101000008981882F90E09C012051304081E090E060
:10101000022E02C0880F991F0A94E2F7842B8C934A
:1010200094C08981883108F490C08981803208F0A9
:101030008CC0A4E3B0E0E4E3F0E08081482F898134
:10104000882F90E09C012851304081E090E0022EF2
:1010500002C0880F991F0A94E2F7842B8C9375C005
:101060008A81882309F071C089818830A8F4ABE3B4
:10107000B0E0EBE3F0E08081482F8981282F30E059
:1010800081E090E0022E02C0880F991F0A94E2F7D7
:10109000809584238C9359C089818830D8F08981C8
:1010A0008031C0F4A7E3B0E0E7E3F0E08081482FAF
:1010B0008981882F90E09C012850304081E090E0A9
:1010C000022E02C0880F991F0A94E2F780958423AC
:1010D0008C933BC089818031D8F089818831C0F4FC
:1010E000A4E3B0E0E4E3F0E08081482F8981882F19
:1010F00090E09C012051304081E090E0022E02C03F
:10110000880F991F0A94E2F7809584238C931DC061
:1011100089818831D0F089818032B8F4A1E3B0E0D0
:10112000E1E3F0E08081482F8981882F90E09C01E5
:101130002851304081E090E0022E02C0880F991FB4
:101140000A94E2F7809584238C930F900F90CF91AF
:10115000DF910895DF93CF93CDB7DEB782E160E0F2
:101160000E94B50783E160E00E94B50784E160E07A
:101170000E94B50785E161E00E944F0686E161E0CB
:101180000E944F0687E161E00E944F06CF91DF91F8
:101190000895DF93CF93CDB7DEB7AD970FB6F89430
:1011A000DEBF0FBECDBF8BA31C8E8BA193E0692F3A
:1011B0000E94A21E8B8F8BA193E0692F0E94A21E1A
:1011C000892F8A8FCE014D969DA38CA3EFEEF0E080
:1011D000FFA3EEA3F3E0F8A7EEA1FFA100808EA18C
:1011E0009FA101969FA38EA3ECA1FDA100828CA1DB
:1011F0009DA101969DA38CA398A5915098A7E8A5C1
:10120000EE2351F7CE0180969AA789A7ECEEF0E085
:10121000FCA7EBA7F3E0FDA7EBA5FCA500808BA541
:101220009CA501969CA78BA7E9A5FAA5008289A594
:101230009AA501969AA789A79DA591509DA7EDA56E
:10124000EE2351F785E161E00E944F0686E161E0FF
:101250000E944F0687E161E00E944F068A8D282F89
:1012600030E0CE018096FC01E20FF31F808160E048
:101270000E944F068B8D282F30E0CE014D96FC0149
:10128000E20FF31F80810E944407898F898D882394
:1012900009F0CFC080E090E0AAEFB3E48D8B9E8B85
:1012A000AF8BB88F6D897E898F89988D2BEA3AEA4A
:1012B0004AE250E40E941F02DC01CB01898B9A8B29
:1012C000AB8BBC8B69897A898B899C8920E030E063
:1012D00040E85FE30E94250488231CF481E0888BAA
:1012E00091C069897A898B899C8920E030E04FE739
:1012F00053E40E94C50318160CF07BC06D897E89EB
:101300008F89988D20E030E04AE754E40E94190369
:10131000DC01CB018C879D87AE87BF876C857D857F
:101320008E859F8520E030E04AEF54E40E941F0242
:10133000DC01CB0188879987AA87BB876885798577
:101340008A859B8520E030E040E85FE30E94250429
:1013500088232CF481E090E09F838E833FC06885D2
:1013600079858A859B8520E03FEF4FE757E40E940F
:10137000C50318164CF56C857D858E859F8520E00C
:1013800030E040E251E40E941F02DC01CB01BC01CD
:10139000CD010E944900DC01CB019F838E830FC0E9
:1013A00088EC90E09D838C838C819D810197F1F77F
:1013B0009D838C838E819F8101979F838E838E81F5
:1013C0009F81009769F724C0688579858A859B8508
:1013D0000E944900DC01CB019F838E838E819F8117
:1013E0009B838A838A819B810197F1F79B838A8300
:1013F0000FC069897A898B899C890E944900DC0128
:10140000CB01888B8889898389818A95F1F78983C3
:101410008B8D282F30E0CE014D96FC01E20FF31F9B
:1014200080810E944407898F898D882311F481E08F
:101430008C8F8C8DAD960FB6F894DEBF0FBECDBFEE
:10144000CF91DF910895DF93CF93CDB7DEB7EAE375
:10145000F0E080EF8083AAE3B0E0EAE3F0E080818F
:1014600082608C93AAE3B0E0EAE3F0E080818460DC
:101470008C93AAE3B0E0EAE3F0E0808188608C938B
:1014800082E00E944E0A88E20E944E0A8CE00E948E
:101490004E0A0E94F316CF91DF9108950F931F9388
:1014A000DF93CF93CDB7DEB7C159D0400FB6F894D4
:1014B000DEBF0FBECDBFFE01EF56FF4F8083ABE313
:1014C000B0E0EBE3F0E080818D7F8C93ABE3B0E0A4
:1014D000EBE3F0E080818B7F8C93FE01E357FF4FBD
:1014E00080E090E0A8ECB2E480839183A283B38390
:1014F0008E0107571F4FFE01E357FF4F6081718137
:10150000828193812BEA3AEA4AE250E40E941F0268
:10151000DC01CB01F80180839183A283B383FE01B8
:10152000E757FF4F608171818281938120E030E035
:1015300040E85FE30E942504882334F4FE01E85765
:10154000FF4F81E08083E0C0FE01E757FF4F6081DD
:1015500071818281938120E030E04FE753E40E9463
:10156000C50318160CF0C0C0FE01E357FF4F6081A1
:1015700071818281938120E030E04AE754E40E9447
:101580001903DC01CB01FE01EC57FF4F80839183EF
:10159000A283B3838E0100581F4FFE01EC57FF4F0B
:1015A000608171818281938120E030E04AEF54E4D0
:1015B0000E941F02DC01CB01F80180839183A2838A
:1015C000B383FE01E058FF4F608171818281938176
:1015D00020E030E040E85FE30E942504882344F4E3
:1015E000FE01E258FF4F81E090E09183808364C068
:1015F000FE01E058FF4F608171818281938120E07C
:101600003FEF4FE757E40E94C50318160CF043C0A4
:10161000FE01EC57FF4F608171818281938120E050
:1016200030E040E251E40E941F02DC01CB018E0158
:1016300002581F4FBC01CD010E944900DC01CB01C3
:10164000F801918380831FC0FE01E458FF4F88ECAE
:1016500090E091838083FE01E458FF4F8081918167
:101660000197F1F7FE01E458FF4F91838083DE017B
:10167000A258BF4FFE01E258FF4F80819181019730
:1016800011969C938E93FE01E258FF4F80819181C9
:101690000097D1F64BC08E0102581F4FFE01E05853
:1016A000FF4F60817181828193810E944900DC013A
:1016B000CB01F80191838083DE01A658BF4FFE0164
:1016C000E258FF4F8081918111969C938E93FE0189
:1016D000E658FF4F808191810197F1F7FE01E658AE
:1016E000FF4F9183808322C08E0108571F4FFE0158
:1016F000E757FF4F60817181828193810E94490089
:10170000DC01CB01F8018083DE01A758BF4FFE0149
:10171000E857FF4F80818C93FE01E758FF4F80818F
:101720008A95F1F7FE01E758FF4F8083ABE3B0E005
:10173000EBE3F0E0808188608C93FE01EB58FF4F73
:1017400080E090E0A8ECB2E480839183A283B3832D
:101750008E010F581F4FFE01EB58FF4F60817181C2
:10176000828193812BEA3AEA4AE250E40E941F0206
:10177000DC01CB01F80180839183A283B383FE0156
:10178000EF58FF4F608171818281938120E030E0CA
:1017900040E85FE30E942504882334F4FE01E05909
:1017A000FF4F81E08083E0C0FE01EF58FF4F608172
:1017B00071818281938120E030E04FE753E40E9401
:1017C000C50318160CF0C0C0FE01EB58FF4F608136
:1017D00071818281938120E030E04AE754E40E94E5
:1017E0001903DC01CB01FE01E459FF4F8083918393
:1017F000A283B3838E0108591F4FFE01E459FF4FA6
:10180000608171818281938120E030E04AEF54E46D
:101810000E941F02DC01CB01F80180839183A28327
:10182000B383FE01E859FF4F60817181828193810A
:1018300020E030E040E85FE30E942504882344F480
:10184000FE01EA59FF4F81E090E09183808364C0FC
:10185000FE01E859FF4F608171818281938120E010
:101860003FEF4FE757E40E94C50318160CF043C042
:10187000FE01E459FF4F608171818281938120E0F4
:1018800030E040E251E40E941F02DC01CB018E01F6
:101890000A591F4FBC01CD010E944900DC01CB0158
:1018A000F801918380831FC0FE01EC59FF4F88EC43
:1018B00090E091838083FE01EC59FF4F80819181FC
:1018C0000197F1F7FE01EC59FF4F91838083DE0110
:1018D000AA59BF4FFE01EA59FF4F808191810197BC
:1018E00011969C938E93FE01EA59FF4F808191815E
:1018F0000097D1F64BC08E010A591F4FFE01E859DF
:10190000FF4F60817181828193810E944900DC01D7
:10191000CB01F80191838083DE01AE59BF4FFE01F8
:10192000EA59FF4F8081918111969C938E93FE011D
:10193000EE59FF4F808191810197F1F7FE01EE5939
:10194000FF4F9183808322C08E0100591F4FFE01FB
:10195000EF58FF4F60817181828193810E9449001D
:10196000DC01CB01F8018083DE01AF59BF4FFE01DE
:10197000E059FF4F80818C93FE01EF59FF4F80812A
:101980008A95F1F7FE01EF59FF4F8083ABE3B0E09A
:10199000EBE3F0E08081982F9F70FE01EF56FF4F40
:1019A0008081807F892B8C93FE01E35AFF4F80E07A
:1019B00090E0A8ECB2E480839183A283B3838E018C
:1019C000075A1F4FFE01E35AFF4F608171818281E8
:1019D00093812BEA3AEA4AE250E40E941F02DC01BA
:1019E000CB01F80180839183A283B383FE01E75A80
:1019F000FF4F608171818281938120E030E040E877
:101A00005FE30E942504882334F4FE01E85AFF4F67
:101A100081E08083E0C0FE01E75AFF4F6081718161
:101A20008281938120E030E04FE753E40E94C503B8
:101A300018160CF0C0C0FE01E35AFF4F608171819F
:101A40008281938120E030E04AE754E40E94190348
:101A5000DC01CB01FE01EC5AFF4F80839183A2830E
:101A6000B3838E01005B1F4FFE01EC5AFF4F608174
:101A700071818281938120E030E04AEF54E40E943A
:101A80001F02DC01CB01F80180839183A283B38321
:101A9000FE01E05BFF4F608171818281938120E0D4
:101AA00030E040E85FE30E942504882344F4FE010F
:101AB000E25BFF4F81E090E09183808364C0FE0190
:101AC000E05BFF4F608171818281938120E03FEF75
:101AD0004FE757E40E94C50318160CF043C0FE01FF
:101AE000EC5AFF4F608171818281938120E030E068
:101AF00040E251E40E941F02DC01CB018E01025B37
:101B00001F4FBC01CD010E944900DC01CB01F8014F
:101B1000918380831FC0FE01E45BFF4F88EC90E05F
:101B200091838083FE01E45BFF4F80819181019767
:101B3000F1F7FE01E45BFF4F91838083DE01A25B3E
:101B4000BF4FFE01E25BFF4F8081918101971196AB
:101B50009C938E93FE01E25BFF4F80819181009701
:101B6000D1F64BC08E01025B1F4FFE01E05BFF4FC1
:101B700060817181828193810E944900DC01CB01E7
:101B8000F80191838083DE01A65BBF4FFE01E25B1B
:101B9000FF4F8081918111969C938E93FE01E65BAD
:101BA000FF4F808191810197F1F7FE01E65BFF4FC6
:101BB0009183808322C08E01085A1F4FFE01E75A8D
:101BC000FF4F60817181828193810E944900DC0115
:101BD000CB01F8018083DE01A75BBF4FFE01E85A0D
:101BE000FF4F80818C93FE01E75BFF4F80818A95D8
:101BF000F1F7FE01E75BFF4F8083ABE3B0E0EBE37F
:101C0000F0E08081877F8C93FE01EB5BFF4F80E0EB
:101C100090E0A8ECB2E480839183A283B3838E0129
:101C20000F5B1F4FFE01EB5BFF4F60817181828173
:101C300093812BEA3AEA4AE250E40E941F02DC0157
:101C4000CB01F80180839183A283B383FE01EF5B14
:101C5000FF4F608171818281938120E030E040E814
:101C60005FE30E942504882334F481E0FE01E05CF8
:101C7000FF4F80839DC0FE01EF5BFF4F608171814C
:101C80008281938120E030E04FE753E40E94C50356
:101C900018160CF07EC0FE01EB5BFF4F6081718176
:101CA0008281938120E030E04AE754E40E941903E6
:101CB000DC01CB018CAF9DAFAEAFBFAF6CAD7DADE6
:101CC0008EAD9FAD20E030E04AEF54E40E941F0249
:101CD000DC01CB0188AF99AFAAAFBBAF68AD79ADDE
:101CE0008AAD9BAD20E030E040E85FE30E94250430
:101CF00088232CF481E090E09FAB8EAB3FC068ADB1
:101D000079AD8AAD9BAD20E03FEF4FE757E40E94ED
:101D1000C50318164CF56CAD7DAD8EAD9FAD20E0C2
:101D200030E040E251E40E941F02DC01CB01BC0123
:101D3000CD010E944900DC01CB019FAB8EAB0FC0EF
:101D400088EC90E09DAB8CAB8CA99DA90197F1F735
:101D50009DAB8CAB8EA99FA901979FAB8EAB8EA933
:101D60009FA9009769F72DC068AD79AD8AAD9BAD8D
:101D70000E944900DC01CB019FAB8EAB8EA99FA9CD
:101D80009BAB8AAB8AA99BA90197F1F79BAB8AAB66
:101D900018C0FE01EF5BFF4F6081718182819381EA
:101DA0000E944900DC01CB01FE01E05CFF4F808313
:101DB000FE01E05CFF4F808189AB89A98A95F1F72C
:101DC00089ABABE3B0E0EBE3F0E0808188608C931B
:101DD00080E090E0A8ECB2E48DA79EA7AFA7B8ABD7
:101DE0006DA57EA58FA598A92BEA3AEA4AE250E4B0
:101DF0000E941F02DC01CB0189A79AA7ABA7BCA751
:101E000069A57AA58BA59CA520E030E040E85FE3BA
:101E10000E94250488231CF481E088A791C069A54D
:101E20007AA58BA59CA520E030E04FE753E40E9403
:101E3000C50318160CF07BC06DA57EA58FA598A9CB
:101E400020E030E04AE754E40E941903DC01CB01B2
:101E50008CA39DA3AEA3BFA36CA17DA18EA19FA1C6
:101E600020E030E04AEF54E40E941F02DC01CB0185
:101E700088A399A3AAA3BBA368A179A18AA19BA1C6
:101E800020E030E040E85FE30E94250488232CF442
:101E900081E090E09F8F8E8F3FC068A179A18AA1D9
:101EA0009BA120E03FEF4FE757E40E94C5031816BF
:101EB0004CF56CA17DA18EA19FA120E030E040E215
:101EC00051E40E941F02DC01CB01BC01CD010E9444
:101ED0004900DC01CB019F8F8E8F0FC088EC90E012
:101EE0009D8F8C8F8C8D9D8D0197F1F79D8F8C8FA1
:101EF0008E8D9F8D01979F8F8E8F8E8D9F8D0097DA
:101F000069F724C068A179A18AA19BA10E94490018
:101F1000DC01CB019F8F8E8F8E8D9F8D9B8F8A8F43
:101F20008A8D9B8D0197F1F79B8F8A8F0FC069A5D2
:101F30007AA58BA59CA50E944900DC01CB0188A74E
:101F400088A5898F898D8A95F1F7898FABE3B0E0F9
:101F5000EBE3F0E08081282F2F70FE01EF56FF4F5A
:101F60008081882F90E082959295907F9827807F3E
:101F70009827822B8C93ABE3B0E0EBE3F0E0808119
:101F8000877F8C9380E090E0A8ECB2E48D8B9E8BF1
:101F9000AF8BB88F6D897E898F89988D2BEA3AEA4D
:101FA0004AE250E40E941F02DC01CB01898B9A8B2C
:101FB000AB8BBC8B69897A898B899C8920E030E066
:101FC00040E85FE30E94250488231CF481E0888BAD
:101FD00091C069897A898B899C8920E030E04FE73C
:101FE00053E40E94C50318160CF07BC06D897E89EE
:101FF0008F89988D20E030E04AE754E40E9419036D
:10200000DC01CB018C879D87AE87BF876C857D8582
:102010008E859F8520E030E04AEF54E40E941F0245
:10202000DC01CB0188879987AA87BB87688579857A
:102030008A859B8520E030E040E85FE30E9425042C
:1020400088232CF481E090E09F838E833FC06885D5
:1020500079858A859B8520E03FEF4FE757E40E9412
:10206000C50318164CF56C857D858E859F8520E00F
:1020700030E040E251E40E941F02DC01CB01BC01D0
:10208000CD010E944900DC01CB019F838E830FC0EC
:1020900088EC90E09D838C838C819D810197F1F782
:1020A0009D838C838E819F8101979F838E838E81F8
:1020B0009F81009769F724C0688579858A859B850B
:1020C0000E944900DC01CB019F838E838E819F811A
:1020D0009B838A838A819B810197F1F79B838A8303
:1020E0000FC069897A898B899C890E944900DC012B
:1020F000CB01888B8889898389818A95F1F78983C7
:10210000CF56DF4F0FB6F894DEBF0FBECDBFCF91D5
:10211000DF911F910F9108950F931F93DF93CF933A
:10212000CDB7DEB7C159D0400FB6F894DEBF0FBEB1
:10213000CDBFFE01EF56FF4F8083ABE3B0E0EBE392
:10214000F0E0808182608C93ABE3B0E0EBE3F0E001
:1021500080818B7F8C93FE01E357FF4F80E090E0FE
:10216000A8ECB2E480839183A283B3838E010757E6
:102170001F4FFE01E357FF4F608171818281938180
:102180002BEA3AEA4AE250E40E941F02DC01CB014A
:10219000F80180839183A283B383FE01E757FF4F49
:1021A000608171818281938120E030E040E85FE3CB
:1021B0000E942504882334F4FE01E857FF4F81E094
:1021C0008083E0C0FE01E757FF4F6081718182810B
:1021D000938120E030E04FE753E40E94C5031816D6
:1021E0000CF0C0C0FE01E357FF4F60817181828116
:1021F000938120E030E04AE754E40E941903DC01B7
:10220000CB01FE01EC57FF4F80839183A283B38300
:102210008E0100581F4FFE01EC57FF4F6081718106
:102220008281938120E030E04AEF54E40E941F0253
:10223000DC01CB01F80180839183A283B383FE018B
:10224000E058FF4F608171818281938120E030E00E
:1022500040E85FE30E942504882344F4FE01E2582D
:10226000FF4F81E090E09183808364C0FE01E058DD
:10227000FF4F608171818281938120E03FEF4FE7C2
:1022800057E40E94C50318160CF043C0FE01EC573A
:10229000FF4F608171818281938120E030E040E2D4
:1022A00051E40E941F02DC01CB018E0102581F4F36
:1022B000BC01CD010E944900DC01CB01F8019183F2
:1022C00080831FC0FE01E458FF4F88EC90E09183AB
:1022D0008083FE01E458FF4F808191810197F1F7DF
:1022E000FE01E458FF4F91838083DE01A258BF4F67
:1022F000FE01E258FF4F80819181019711969C93D6
:102300008E93FE01E258FF4F808191810097D1F6B4
:102310004BC08E0102581F4FFE01E058FF4F6081F5
:102320007181828193810E944900DC01CB01F80117
:1023300091838083DE01A658BF4FFE01E258FF4F14
:102340008081918111969C938E93FE01E658FF4FF8
:10235000808191810197F1F7FE01E658FF4F91834B
:10236000808322C08E0108571F4FFE01E757FF4FA1
:1023700060817181828193810E944900DC01CB01DF
:10238000F8018083DE01A758BF4FFE01E857FF4FD9
:1023900080818C93FE01E758FF4F80818A95F1F789
:1023A000FE01E758FF4F8083ABE3B0E0EBE3F0E0E2
:1023B000808188608C93FE01EB58FF4F80E090E0B5
:1023C000A8ECB2E480839183A283B3838E010F587B
:1023D0001F4FFE01EB58FF4F608171818281938115
:1023E0002BEA3AEA4AE250E40E941F02DC01CB01E8
:1023F000F80180839183A283B383FE01EF58FF4FDE
:10240000608171818281938120E030E040E85FE368
:102410000E942504882334F4FE01E059FF4F81E037
:102420008083E0C0FE01EF58FF4F6081718182819F
:10243000938120E030E04FE753E40E94C503181673
:102440000CF0C0C0FE01EB58FF4F608171818281AA
:10245000938120E030E04AE754E40E941903DC0154
:10246000CB01FE01E459FF4F80839183A283B383A4
:102470008E0108591F4FFE01E459FF4F60817181A1
:102480008281938120E030E04AEF54E40E941F02F1
:10249000DC01CB01F80180839183A283B383FE0129
:1024A000E859FF4F608171818281938120E030E0A3
:1024B00040E85FE30E942504882344F4FE01EA59C2
:1024C000FF4F81E090E09183808364C0FE01E85972
:1024D000FF4F608171818281938120E03FEF4FE760
:1024E00057E40E94C50318160CF043C0FE01E459DE
:1024F000FF4F608171818281938120E030E040E272
:1025000051E40E941F02DC01CB018E010A591F4FCA
:10251000BC01CD010E944900DC01CB01F80191838F
:1025200080831FC0FE01EC59FF4F88EC90E091833F
:102530008083FE01EC59FF4F808191810197F1F773
:10254000FE01EC59FF4F91838083DE01AA59BF4FF2
:10255000FE01EA59FF4F80819181019711969C936A
:102560008E93FE01EA59FF4F808191810097D1F649
:102570004BC08E010A591F4FFE01E859FF4F608181
:102580007181828193810E944900DC01CB01F801B5
:1025900091838083DE01AE59BF4FFE01EA59FF4FA0
:1025A0008081918111969C938E93FE01EE59FF4F8D
:1025B000808191810197F1F7FE01EE59FF4F9183E0
:1025C000808322C08E0100591F4FFE01EF58FF4F3C
:1025D00060817181828193810E944900DC01CB017D
:1025E000F8018083DE01AF59BF4FFE01E059FF4F74
:1025F00080818C93FE01EF59FF4F80818A95F1F71E
:10260000FE01EF59FF4F8083ABE3B0E0EBE3F0E076
:102610008081982F9F70FE01EF56FF4F8081807F51
:10262000892B8C93FE01E35AFF4F80E090E0A8ECE9
:10263000B2E480839183A283B3838E01075A1F4F34
:10264000FE01E35AFF4F60817181828193812BEA01
:102650003AEA4AE250E40E941F02DC01CB01F80191
:1026600080839183A283B383FE01E75AFF4F608189
:1026700071818281938120E030E040E85FE30E9435
:102680002504882334F4FE01E85AFF4F81E080835B
:10269000E0C0FE01E75AFF4F608171818281938122
:1026A00020E030E04FE753E40E94C50318160CF019
:1026B000C0C0FE01E35AFF4F608171818281938126
:1026C00020E030E04AE754E40E941903DC01CB012A
:1026D000FE01EC5AFF4F80839183A283B3838E0166
:1026E000005B1F4FFE01EC5AFF4F608171818281B8
:1026F000938120E030E04AEF54E40E941F02DC01A5
:10270000CB01F80180839183A283B383FE01E05B58
:10271000FF4F608171818281938120E030E040E849
:102720005FE30E942504882344F4FE01E25BFF4F2F
:1027300081E090E09183808364C0FE01E05BFF4F05
:10274000608171818281938120E03FEF4FE757E400
:102750000E94C50318160CF043C0FE01EC5AFF4F4F
:10276000608171818281938120E030E040E251E418
:102770000E941F02DC01CB018E01025B1F4FBC01D6
:10278000CD010E944900DC01CB01F80191838083D7
:102790001FC0FE01E45BFF4F88EC90E091838083D3
:1027A000FE01E45BFF4F808191810197F1F7FE010B
:1027B000E45BFF4F91838083DE01A25BBF4FFE018C
:1027C000E25BFF4F80819181019711969C938E93DC
:1027D000FE01E25BFF4F808191810097D1F64BC0F3
:1027E0008E01025B1F4FFE01E05BFF4F6081718134
:1027F000828193810E944900DC01CB01F801918321
:102800008083DE01A65BBF4FFE01E25BFF4F80814C
:10281000918111969C938E93FE01E65BFF4F808120
:1028200091810197F1F7FE01E65BFF4F9183808371
:1028300022C08E01085A1F4FFE01E75AFF4F6081E8
:102840007181828193810E944900DC01CB01F801F2
:102850008083DE01A75BBF4FFE01E85AFF4F8081F6
:102860008C93FE01E75BFF4F80818A95F1F7FE01B3
:10287000E75BFF4F8083ABE3B0E0EBE3F0E0808108
:10288000877F8C93FE01EB5BFF4F80E090E0A8EC2C
:10289000B2E480839183A283B3838E010F5B1F4FC9
:1028A000FE01EB5BFF4F60817181828193812BEA96
:1028B0003AEA4AE250E40E941F02DC01CB01F8012F
:1028C00080839183A283B383FE01EF5BFF4F60811E
:1028D00071818281938120E030E040E85FE30E94D3
:1028E0002504882334F481E0FE01E05CFF4F8083FF
:1028F0009DC0FE01EF5BFF4F6081718182819381FA
:1029000020E030E04FE753E40E94C50318160CF0B6
:102910007EC0FE01EB5BFF4F6081718182819381FC
:1029200020E030E04AE754E40E941903DC01CB01C7
:102930008CAF9DAFAEAFBFAF6CAD7DAD8EAD9FAD7B
:1029400020E030E04AEF54E40E941F02DC01CB019A
:1029500088AF99AFAAAFBBAF68AD79AD8AAD9BAD7B
:1029600020E030E040E85FE30E94250488232CF457
:1029700081E090E09FAB8EAB3FC068AD79AD8AAD92
:102980009BAD20E03FEF4FE757E40E94C5031816C8
:102990004CF56CAD7DAD8EAD9FAD20E030E040E2FA
:1029A00051E40E941F02DC01CB01BC01CD010E9459
:1029B0004900DC01CB019FAB8EAB0FC088EC90E0EF
:1029C0009DAB8CAB8CA99DA90197F1F79DAB8CAB0E
:1029D0008EA99FA901979FAB8EAB8EA99FA9009747
:1029E00069F72DC068AD79AD8AAD9BAD0E944900F5
:1029F000DC01CB019FAB8EAB8EA99FA99BAB8AABB1
:102A00008AA99BA90197F1F79BAB8AAB18C0FE017D
:102A1000EF5BFF4F60817181828193810E94490049
:102A2000DC01CB01FE01E05CFF4F8083FE01E05C36
:102A3000FF4F808189AB89A98A95F1F789ABABE318
:102A4000B0E0EBE3F0E0808188608C9380E090E080
:102A5000A8ECB2E48DA79EA7AFA7B8AB6DA57EA5E5
:102A60008FA598A92BEA3AEA4AE250E40E941F0295
:102A7000DC01CB0189A79AA7ABA7BCA769A57AA55A
:102A80008BA59CA520E030E040E85FE30E94250490
:102A900088231CF481E088A791C069A57AA58BA53D
:102AA0009CA520E030E04FE753E40E94C5031816D0
:102AB0000CF07BC06DA57EA58FA598A920E030E025
:102AC0004AE754E40E941903DC01CB018CA39DA3C7
:102AD000AEA3BFA36CA17DA18EA19FA120E030E099
:102AE0004AEF54E40E941F02DC01CB0188A399A3A2
:102AF000AAA3BBA368A179A18AA19BA120E030E091
:102B000040E85FE30E94250488232CF481E090E0F4
:102B10009F8F8E8F3FC068A179A18AA19BA120E0E1
:102B20003FEF4FE757E40E94C50318164CF56CA120
:102B30007DA18EA19FA120E030E040E251E40E94FF
:102B40001F02DC01CB01BC01CD010E944900DC0168
:102B5000CB019F8F8E8F0FC088EC90E09D8F8C8F64
:102B60008C8D9D8D0197F1F79D8F8C8F8E8D9F8D14
:102B700001979F8F8E8F8E8D9F8D009769F724C050
:102B800068A179A18AA19BA10E944900DC01CB0127
:102B90009F8F8E8F8E8D9F8D9B8F8A8F8A8D9B8D21
:102BA0000197F1F79B8F8A8F0FC069A57AA58BA536
:102BB0009CA50E944900DC01CB0188A788A5898FCC
:102BC000898D8A95F1F7898FABE3B0E0EBE3F0E014
:102BD0008081282F2F70FE01EF56FF4F8081882FB4
:102BE00090E082959295907F9827807F9827822BFE
:102BF0008C93ABE3B0E0EBE3F0E08081877F8C93D4
:102C000080E090E0A8ECB2E48D8B9E8BAF8BB88F08
:102C10006D897E898F89988D2BEA3AEA4AE250E4E1
:102C20000E941F02DC01CB01898B9A8BAB8BBC8B82
:102C300069897A898B899C8920E030E040E85FE3EC
:102C40000E94250488231CF481E0888B91C0698947
:102C50007A898B899C8920E030E04FE753E40E9419
:102C6000C50318160CF07BC06D897E898F89988DFD
:102C700020E030E04AE754E40E941903DC01CB0174
:102C80008C879D87AE87BF876C857D858E859F8568
:102C900020E030E04AEF54E40E941F02DC01CB0147
:102CA00088879987AA87BB87688579858A859B8568
:102CB00020E030E040E85FE30E94250488232CF404
:102CC00081E090E09F838E833FC0688579858A8507
:102CD0009B8520E03FEF4FE757E40E94C50318169D
:102CE0004CF56C857D858E859F8520E030E040E247
:102CF00051E40E941F02DC01CB01BC01CD010E9406
:102D00004900DC01CB019F838E830FC088EC90E0EB
:102D10009D838C838C819D810197F1F79D838C83AA
:102D20008E819F8101979F838E838E819F810097E3
:102D300069F724C0688579858A859B850E9449004A
:102D4000DC01CB019F838E838E819F819B838A834D
:102D50008A819B810197F1F79B838A830FC06989E0
:102D60007A898B899C890E944900DC01CB01888B80
:102D70008889898389818A95F1F78983CF56DF4FC6
:102D80000FB6F894DEBF0FBECDBFCF91DF911F917C
:102D90000F910895DF93CF9300D00F92CDB7DEB798
:102DA0009B838A8319820EC08981282F30E08A8113
:102DB0009B81FC01E20FF31F80810E948C108981AE
:102DC0008F5F89838981282F30E08A819B81FC0174
:102DD000E20FF31F8081882339F70F900F900F9037
:102DE000CF91DF910895DF93CF93CDB7DEB781E028
:102DF0000E944E0ACF91DF910895DF93CF93CDB714
:102E0000DEB762970FB6F894DEBF0FBECDBF9A8BC8
:102E1000898B89899A899E012F5F3F4FB9014AE0CA
:102E200050E00E94E51ECE0101960E94CA166296ED
:102E30000FB6F894DEBF0FBECDBFCF91DF910895DE
:102E4000DF93CF9300D000D00F92CDB7DEB78A8347
:102E50006B838A81282F30E03D832C838C819D8178
:102E600081309105C1F02C813D81223031052CF457
:102E70008C819D81009761F019C02C813D812230A9
:102E8000310569F08C819D818330910561F00EC020
:102E90008B8189830BC08B81805C898307C08B8188
:102EA000805F898303C08B81805B8983898180688F
:102EB0000E944E0A0F900F900F900F900F90CF919D
:102EC000DF910895DF93CF9300D000D0CDB7DEB768
:102ED00089836A835C834B8389816A810E9420177E
:102EE0008B819C810E94CA160F900F900F900F90BB
:102EF000CF91DF910895DF93CF930F92CDB7DEB7D7
:102F00000E941D1B0E94791A8091EA000E94941A67
:102F10008AEB99E10E94801B198258C08981882F11
:102F200090E0880F991F9C01220F331F220F331F3F
:102F3000820F931FFC01E150FF4F118210828981A3
:102F4000882F90E0880F991F9C01220F331F220FBA
:102F5000331F820F931FFC01EC5FFE4F10828981AB
:102F6000882F90E0880F991F9C01220F331F220F9A
:102F7000331F820F931FFC01EE5FFE4F1182108200
:102F80008981282F30E0C901880F991F880F991F68
:102F9000820F931F0196880F991FFC01E150FF4F8C
:102FA00082E080838981882F90E0880F991F9C019F
:102FB000220F331F220F331F820F931FFC01E95F83
:102FC000FE4F1182108289818F5F898389818A30C7
:102FD00008F4A4CF0F90CF91DF9108950F931F9322
:102FE000DF93CF93CDB7DEB72A970FB6F894DEBF45
:102FF0000FBECDBF9B838A836C835E834D833887EE
:103000002F831A8709878091F2008A3008F07CC0EC
:103010008091F200882F90E0880F991F9C01220F69
:10302000331F220F331F820F931FFC01E150FF4F0C
:103030008A819B81918380838091F200882F90E028
:10304000880F991F9C01220F331F220F331F820FFD
:10305000931FFC01EC5FFE4F8C8180838091F20016
:10306000882F90E0880F991F9C01220F331F220F99
:10307000331F820F931FFC01EE5FFE4F8D819E81F7
:10308000918380838091F200282F30E0C901880F5E
:10309000991F880F991F820F931F0196880F991F00
:1030A000FC01E150FF4F82E080838091F200882F85
:1030B00090E0880F991F9C01220F331F220F331FAE
:1030C000820F931FFC01EB5FFE4F8F8198859183E8
:1030D00080838091F200882F90E0880F991F9C01D7
:1030E000220F331F220F331F820F931FFC01E95F52
:1030F000FE4F89859A85918380838091F2008F5F4E
:103100008093F200198202C081E0898389812A9626
:103110000FB6F894DEBF0FBECDBFCF91DF911F91E8
:103120000F910895DF93CF9300D000D0CDB7DEB7D5
:103130009C838B8381E089831A8282C08A81882F55
:1031400090E0880F991F9C01220F331F220F331F1D
:10315000820F931FFC01E150FF4F208131818B8151
:103160009C812817390709F068C08A81882F90E070
:10317000880F991F9C01220F331F220F331F820FCC
:10318000931FFC01E150FF4F118210828A81882F2A
:1031900090E0880F991F9C01220F331F220F331FCD
:1031A000820F931FFC01EC5FFE4F10828A81882FF3
:1031B00090E0880F991F9C01220F331F220F331FAD
:1031C000820F931FFC01EE5FFE4F118210828A81F5
:1031D000282F30E0C901880F991F880F991F820F8F
:1031E000931F0196880F991FFC01E150FF4F83E068
:1031F00080838A81882F90E0880F991F9C01220F7D
:10320000331F220F331F820F931FFC01EB5FFE4F12
:10321000118210828091F200882F90E0880F991F10
:103220009C01220F331F220F331F820F931FFC01BB
:10323000E95FFE4F1182108219828A818F5F8A8333
:103240009091F2008A81891708F478CF89810F90D4
:103250000F900F900F90CF91DF910895DF93CF9350
:1032600000D0CDB7DEB71A827EC08A81282F30E029
:10327000C901880F991F880F991F820F931F01960C
:10328000880F991FFC01E150FF4F8081882309F0CE
:1032900067C0198261C08A81882F90E0880F991FCA
:1032A0009C01220F331F220F331F820F931FFC013B
:1032B000EC5FFE4F90818981981709F04AC08A819E
:1032C000282F30E0C901880F991F880F991F820F9E
:1032D000931F0196880F991FFC01E150FF4F81E079
:1032E00080838A81282F30E0C901880F991F880FB9
:1032F000991F820F931F0196880F991FFC01E150BF
:10330000FF4F8081813099F48A81882F90E0880F67
:10331000991F9C01220F331F220F331F820F931F0F
:10332000FC01E150FF4F0190F081E02D09958A8169
:10333000282F30E0C901880F991F880F991F820F2D
:10334000931F0196880F991FFC01E150FF4F82E007
:10335000808389818F5F89838981853008F49BCF41
:103360008A818F5F8A839091F2008A81891708F49D
:103370007CCF79CFDF93CF930F92CDB7DEB7198291
:1033800069C08981882F90E0880F991F9C01220FC6
:10339000331F220F331F820F931FFC01EB5FFE4F81
:1033A000208131818091F3009091F4002817390732
:1033B000E1F58981682F70E08981882F90E0880F7E
:1033C000991F9C01220F331F220F331F820F931F5F
:1033D000FC01EE5FFE4F208131818091F3009091DE
:1033E000F400A901480F591FCB01880F991F9C01B8
:1033F000220F331F220F331F820F931FFC01EB5F3D
:10340000FE4F518340838981282F30E0C901880F06
:10341000991F880F991F820F931F0196880F991F7C
:10342000FC01E150FF4F108212C08981282F30E04B
:10343000C901880F991F880F991F820F931F01964A
:10344000880F991FFC01E150FF4F82E08083898142
:103450008F5F89839091F2008981891708F491CF59
:103460008091F3009091F40001969093F400809382
:10347000F3000F90CF91DF910895DF93CF93CDB7F5
:10348000DEB70E94011BCF91DF9108951F920F922A
:103490000FB60F9211242F933F934F935F936F9327
:1034A0007F938F939F93AF93BF93EF93FF93DF939C
:1034B000CF93CDB7DEB78091F5009091F6000097DD
:1034C00029F0E091F500F091F6000995CF91DF9198
:1034D000FF91EF91BF91AF919F918F917F916F91EC
:1034E0005F914F913F912F910F900FBE0F901F90C2
:1034F0001895DF93CF93CDB7DEB7E3E5F0E0108208
:10350000E2E5F0E01082A9E5B0E0E9E5F0E08081D5
:1035100082608C93A3E5B0E0E3E5F0E080818C600D
:103520008C93CF91DF910895DF93CF9300D00F92CA
:10353000CDB7DEB789838981282F30E03B832A838A
:103540008A819B8184309105C9F12A813B81253094
:10355000310584F48A819B818230910529F12A8189
:103560003B81233031052CF58A819B818130910587
:10357000B1F03DC02A813B812630310549F18A8175
:103580009B8186309105FCF02A813B8127303105F3
:1035900021F18A819B818830910521F128C0ECE5D9
:1035A000F0E08FE1808327C0ECE5F0E08EE38083DC
:1035B00022C0ECE5F0E08EE580831DC0ECE5F0E094
:1035C0008DE7808318C0ECE5F0E08CE9808313C0C0
:1035D000ECE5F0E08BEB80830EC0ECE5F0E08BEDEA
:1035E000808309C0ECE5F0E08AEF808304C0ECE55D
:1035F000F0E08AEF80830F900F900F90CF91DF91D2
:103600000895DF93CF93CDB7DEB7A3E5B0E0E3E550
:10361000F0E080818E7F8C93A3E5B0E0E3E5F0E0FD
:1036200080818D7F8C93A3E5B0E0E3E5F0E08081BD
:103630008B7F8C93CF91DF910895DF93CF93CDB79C
:10364000DEB7AFE5B0E0EFE5F0E0808180688C9315
:10365000CF91DF910895DF93CF93CDB7DEB7AFE57C
:10366000B0E0EFE5F0E080818F778C93CF91DF9130
:103670000895DF93CF93CDB7DEB728970FB6F894B0
:10368000DEBF0FBECDBF6D837E838F839887E2E55B
:10369000F0E0108219821A821B821C821BC0E8E5AE
:1036A000F0E08081882F90E0827090700097B9F3ED
:1036B000A8E5B0E0E8E5F0E0808182608C93898144
:1036C0009A81AB81BC810196A11DB11D89839A832A
:1036D000AB83BC8329813A814B815C818D819E8142
:1036E000AF81B885281739074A075B07C0F22896CB
:1036F0000FB6F894DEBF0FBECDBFCF91DF91089516
:10370000DF93CF9300D0CDB7DEB79A8389838981C9
:103710009A819093F6008093F5000F900F90CF91CF
:10372000DF910895DF93CF93CDB7DEB7E4E3F0E008
:1037300080EE8083E5E3F0E08FE18083CF91DF913D
:103740000895DF93CF930F92CDB7DEB71092640147
:103750005AC0E4E3F0E080916401282F30E080E279
:1037600090E002C0880F991F2A95E2F78083E5E375
:10377000F0E080916401282F30E080E290E0022E9A
:1037800002C0880F991F0A94E2F78095808382E037
:10379000809365012FC0E3E3F0E08081282F30E0C3
:1037A00080916501882F90E0A90102C05595479549
:1037B0008A95E2F7CA01817090700097B1F48EE0AB
:1037C00061E00E944F0680916501282F30E0C90119
:1037D000880F991F820F931F982F80916401890F82
:1037E00085500E940F1C898315C0809165018F5FF1
:1037F0008093650180916501853068F28091640154
:103800008F5F8093640180916401833008F4A1CFBD
:1038100051E6598389810F90CF91DF910895DF930D
:10382000CF9300D000D0CDB7DEB789838981282F10
:1038300030E03C832B838B819C818530910509F49A
:1038400041C02B813C8126303105DCF48B819C8189
:103850008230910571F12B813C812330310534F4A4
:103860008B819C818130910509F13BC02B813C818A
:103870002330310509F18B819C8184309105F9F069
:1038800030C02B813C812730310511F18B819C8127
:1038900087309105D4F02B813C8128303105D9F057
:1038A0008B819C8189309105C9F01BC091E09A837E
:1038B0001AC022E02A8317C033E03A8314C084E0A0
:1038C0008A8311C095E09A830EC026E02A830BC03C
:1038D00037E03A8308C088E08A8305C099E09A837C
:1038E00002C029812A838A810F900F900F900F9038
:1038F000CF91DF9108950F931F93DF93CF93CDB7AF
:10390000DEB70E94230A0E94921B0E947B1787E465
:103910009EE161E041E050E021E030E000E010E0B5
:103920000E94EE1786EA9CE160E044E150E024E169
:1039300030E000E010E00E94EE170E942E1980E0B7
:1039400090E0CF91DF911F910F910895DF93CF9376
:1039500000D0CDB7DEB70E94F3168091F800282F73
:1039600030E03A83298389819A818330910509F473
:10397000BDC029813A81243031058CF489819A8136
:103980008130910509F444C029813A812230310502
:103990000CF075C089819A810097A1F073C12981CB
:1039A0003A812530310509F406C189819A81853033
:1039B00091050CF4D2C029813A812630310509F4F1
:1039C00028C160C11092F90080E060E00E942017D9
:1039D00080E690E00E94CA1681E060E00E94201715
:1039E0008CE690E00E94CA1680E06DE00E942017ED
:1039F0008091FC00805D0E948C108091FC008530DD
:103A000009F040C181E08093F8001092FC003AC1B7
:103A100080E060E00E9420178DE790E00E94CA16C7
:103A200081E060E00E9420178AE890E00E94CA16B8
:103A300080E06DE00E9420178091FC00805D0E9474
:103A40008C108091FC00843051F48091F9008F5FDC
:103A50008093F90082E08093F8001092FC0080913E
:103A6000FC00863009F00EC18091F90081508093EE
:103A7000F90082E08093F8001092FC0003C180E01E
:103A800060E00E94201787E990E00E94CA1681E05A
:103A900060E00E9420178AE890E00E94CA1680E049
:103AA0006DE00E9420178091FC00805D0E948C10C8
:103AB0008091FC00843051F48091F9008F5F8093F5
:103AC000F90083E08093F8001092FC008091FC00E4
:103AD000863009F0D7C08091F90081508093F900B9
:103AE00083E08093F8001092FC00CCC080E060E09E
:103AF0000E94201782EA90E00E94CA1681E060E0EE
:103B00000E9420178AE890E00E94CA1680E06DE0CB
:103B10000E9420178091FC00805D0E948C10809193
:103B2000FC00843051F48091F9008F5F8093F9009C
:103B300084E08093F8001092FC008091FC008630B5
:103B400009F0A0C08091F90081508093F90084E0D1
:103B50008093F8001092FC0095C080E060E00E9425
:103B600020178DEA90E00E94CA1681E060E00E9472
:103B700020178AE890E00E94CA168091FC008430E9
:103B800051F48091F9008F5F8093F90085E0809374
:103B9000F8001092FC008091FC00863009F072C0A1
:103BA0008091F90081508093F90085E08093F800BE
:103BB0001092FC0067C080E060E00E94201788EB54
:103BC00090E00E94CA1681E060E00E9420178AE817
:103BD00090E00E94CA168091FC00843051F48091DC
:103BE000F9008F5F8093F90086E08093F8001092CF
:103BF000FC008091FC00863009F044C08091F900FF
:103C000081508093F90086E08093F8001092FC00C8
:103C100039C080E060E00E94201782EC90E00E94B2
:103C2000CA1680E065E00E9420178091F900882381
:103C300024F480E30E948C1005C08091F900805D1F
:103C40000E948C1081E060E00E94201787EC90E0D9
:103C50000E94CA168091FC00843021F41092F80072
:103C60001092FC008091FC00863061F480E060E0FE
:103C70000E94201788ED90E00E94CA1686EA9CE117
:103C80000E9492180F900F90CF91DF910895DF93CB
:103C9000CF9300D0CDB7DEB78091FE008093FD00BA
:103CA0000E94A11B8093FE008091EB00282F30E042
:103CB0003A83298389819A8181309105D9F12981BB
:103CC0003A812230310529F089819A810097A9F043
:103CD00034C08091FE00813681F18091FA008F5FBF
:103CE0008093FA008091FA008A3019F41092EB0068
:103CF00024C081E08093EB0020C09091FD00809172
:103D0000FE00981781F08091FE00813661F00E94DC
:103D1000A11B8093FC008091FE008093FD0081E058
:103D20008093EB0004C08EE060E00E944F0610928A
:103D3000FA0003C082E08093EB000F900F90CF91C8
:103D4000DF910895991B79E004C0991F961708F038
:103D5000961B881F7A95C9F7809508952F923F92F8
:103D60004F925F926F927F928F929F92AF92BF928B
:103D7000CF92DF92EF92FF920F931F93CF93DF9337
:103D8000CDB7DEB7CA1BDB0B0FB6F894DEBF0FBE94
:103D9000CDBF09942A88398848885F846E847D84E1
:103DA0008C849B84AA84B984C884DF80EE80FD80E3
:103DB0000C811B81AA81B981CE0FD11D0FB6F89459
:103DC000DEBF0FBECDBFED010895FB019F01E8945A
:103DD0004230C4F04532B4F44A3029F497FB1EF463
:103DE000909581959F4F642F77270E94161F805DC5
:103DF0008A330CF0895D8193CB010097A1F716F40B
:103E00005DE251931082C9010C94061FDC01FC0194
:103E1000672F71917723E1F7329704C07C916D93FE
:103E200070836291AE17BF07C8F30895AA1BBB1B2E
:103E300051E107C0AA1FBB1FA617B70710F0A61BAA
:103E4000B70B881F991F5A95A9F780959095BC01CB
:083E5000CD010895F894FFCFA5
:103E580077656C636F6D65203A442000546F20735A
:103E680074617274207072657373203500722075E6
:103E780020686572653F203A4400342D79657320C7
:103E88002020362D6E6F00722075206964696F746A
:103E98003F00722075206C6F7365723F0072207549
:103EA8002070757373793F0072207520686572659C
:103EB8003F007265733D00726573746172742D34CE
:103EC80020637263742D3600792079207920792057
:103ED800790000000000000000000102151617120A
:023EE8001314B1
:00000001FF
